S00E0000747261696C312E73726563C9
S113000029C0000040C0000055C0000033C00000FB
S113001031C000002FC000002DC000002BC0000024
S113002029C0000027C0000025C0000023C0000034
S113003021C000001FC000001DC000001BC0000044
S113004019C0000017C0000015C0000013C0000054
S113005011C0000011241FBECFE5D8E0DEBFCDBF24
S113006020E0A0E6B0E001C01D92A436B207E1F79B
S113007056D05AC0C5CF789485B7816085BF8BB7F9
S1130080806C8BBF08951F920F920FB60F921124AC
S11300908F939F9380916200909163000196909357
S11300A06300809362009F918F910F900FBE0F9019
S11300B01F9018951F920F920FB60F9211248F93D1
S11300C09F938091600090916100019690936100EC
S11300D0809360009F918F910F900FBE0F901F909F
S11300E0189587B3876187BB089583B7886483BFF6
S11300F083B7806283BF83B7866083BF8FB5806810
S11301008FBD8FB589608FBD8FB585608FBD089514
S113011080E487B9379A86B1876886B90895E1DFA4
S10F0120E4DFF6DFA8DFFFCFF894FFCF88
S9030000FC
